:100000000C942A000C9447000C9447000C94470071
:100010000C9447000C9447000C9447000C94470044
:100020000C9447000C9447000C9447000C94470034
:100030000C9447000C9447000C9447000C94470024
:100040000C9447000C9447000C9447000C94470014
:100050000C94470011241FBECFE5D8E0DEBFCDBF12
:1000600010E0A0E6B0E0E2EFF8E002C005900D92EB
:10007000A636B107D9F720E0A6E6B0E001C01D9290
:10008000AB36B207E1F70E9432010C9477040C946E
:10009000000041E061E083E40E94AD028FE99FE04F
:1000A0000197F1F700C0000040E061E083E40E94A6
:1000B000AD028FE99FE00197F1F700C000000895BD
:1000C000CF93C82F682F62956F7084E40E941D0340
:1000D00041E060E083E40E94AD020E9449006C2F81
:1000E00084E40E941D0341E060E083E40E94AD02CD
:1000F0000E9449008FEC97E00197F1F700C00000E3
:10010000CF910895CF93C82F682F62956F7084E4C4
:100110000E941D0340E060E083E40E94AD020E9463
:1001200049006C2F84E40E941D0340E060E083E4FA
:100130000E94AD020E9449008FEC97E00197F1F711
:1001400000C00000CF9108952FEF81EE94E0215080
:1001500080409040E1F700C0000041E064E084E4AA
:100160000E943D0241E065E084E40E943D0241E0DE
:1001700066E084E40E943D0241E067E084E40E947E
:100180003D0241E061E083E40E943D0241E062E023
:1001900083E40E943D0241E060E083E40E943D026E
:1001A00040E062E083E40E94AD0282E00E948200AF
:1001B0008FE19EE40197F1F700C0000088E20E9401
:1001C00082008FEC97E00197F1F700C000008CE00F
:1001D0000E9482008FEC97E00197F1F700C00000C9
:1001E00081E00E9482008FE19EE40197F1F700C058
:1001F000000086E00E9482008FEC97E00197F1F703
:1002000000C0000008959FEF980F923070F49FEFA8
:10021000960F903160F4813019F48FE7860F0AC091
:10022000823039F48FEB860F05C080E803C080E888
:1002300001C080E00E9482008FEC97E00197F1F707
:1002400000C000000895CF93DF93EC0188818823DC
:1002500031F021960E94600089918111FBCFDF91DE
:10026000CF9108950E94A4000E942D0280E690E0A4
:100270000E942301C8EED3E006E610E00E9434029B
:10028000BC0180E090E00E946D0320E030E040E29D
:1002900050E40E94D3030E943E0370936A0060936F
:1002A0006900683E23E0720708F46EC09B01285E77
:1002B0003340ADECBCEC0E9468049695879596950A
:1002C00087959695879590936700809366008A300E
:1002D0009105B0F466E081E00E94030180E20E9493
:1002E0006000F8018081805D0E9460008FED0E94B7
:1002F000600083E60E94600080E20E946000BECF42
:100300008436910508F0BACF66E081E00E940301CF
:1003100080E20E9460002091660030916700ADECA1
:10032000BCEC0E946804969587959695879596955E
:100330008795805D0E946000409166005091670043
:100340009A01ADECBCEC0E94680496958795969551
:100350008795969587959C01220F331F880F991FCB
:10036000880F991F880F991F820F931F9A01281BCE
:10037000390BC901805D0E9460008FED0E94600012
:1003800083E60E9460007ACF9E01261B370BADECFE
:10039000BCEC0E94680496958795969587959695EE
:1003A000879590936700809366000A97B0F466E0A3
:1003B00081E00E94030180E20E9460008DE20E94C1
:1003C0006000F8018081805D0E9460008FED0E94D6
:1003D000600083E60E94600051CF66E081E00E94E9
:1003E00003018DE20E946000209166003091670059
:1003F000ADECBCEC0E946804969587959695879520
:1004000096958795805D0E946000409166005091AE
:1004100067009A01ADECBCEC0E9468049695879544
:1004200096958795969587959C01220F331F880F87
:10043000991F880F991F880F991F820F931F9A0188
:10044000281B390BC901805D0E9460008FED0E945E
:10045000600083E60E94600011CF3E9A3F9A3C9A6A
:10046000379A319A329A0895369A3499FECF349A4F
:1004700084B125B190E0922B0895823419F118F4DB
:10048000813439F008958334B1F1843409F44CC0D7
:100490000895413059F42AB381E090E002C0880FFA
:1004A000991F6A95E2F7822B8ABB08952AB381E0EF
:1004B00090E002C0880F991F6A95E2F78095822329
:1004C0008ABB0895413059F427B381E090E002C01F
:1004D000880F991F6A95E2F7822B87BB089527B38F
:1004E00081E090E002C0880F991F6A95E2F780953D
:1004F000822387BB0895413059F424B381E090E012
:1005000002C0880F991F6A95E2F7822B84BB089579
:1005100024B381E090E002C0880F991F6A95E2F74A
:100520008095822384BB0895413059F421B381E042
:1005300090E002C0880F991F6A95E2F7822B81BB79
:10054000089521B381E090E002C0880F991F6A9559
:10055000E2F78095822381BB0895823419F118F463
:10056000813439F008958334B1F1843409F44CC0F6
:100570000895413059F42BB381E090E002C0880F18
:10058000991F6A95E2F7822B8BBB08952BB381E00C
:1005900090E002C0880F991F6A95E2F78095822348
:1005A0008BBB0895413059F428B381E090E002C03C
:1005B000880F991F6A95E2F7822B88BB089528B3AC
:1005C00081E090E002C0880F991F6A95E2F780955C
:1005D000822388BB0895413059F425B381E090E02F
:1005E00002C0880F991F6A95E2F7822B85BB089598
:1005F00025B381E090E002C0880F991F6A95E2F769
:100600008095822385BB0895413059F422B381E05F
:1006100090E002C0880F991F6A95E2F7822B82BB97
:10062000089522B381E090E002C0880F991F6A9577
:10063000E2F78095822382BB0895CF93DF93D82F72
:10064000C62F462F417064E00E94AD02C1FB4427D3
:1006500040F965E08D2F0E94AD02C2FB442740F9AE
:1006600066E08D2F0E94AD02C3FB442740F967E08E
:100670008D2F0E94AD02DF91CF9108950E94B203A9
:1006800088F09F5798F0B92F9927B751B0F0E1F053
:10069000660F771F881F991F1AF0BA95C9F714C003
:1006A000B13091F00E94CC03B1E008950C94CC03DA
:1006B000672F782F8827B85F39F0B93FCCF386953C
:1006C00077956795B395D9F73EF490958095709599
:1006D00061957F4F8F4F9F4F0895E89409C097FB16
:1006E0003EF490958095709561957F4F8F4F9F4F09
:1006F0009923A9F0F92F96E9BB279395F69587954D
:1007000077956795B795F111F8CFFAF4BB0F11F40F
:1007100060FF1BC06F5F7F4F8F4F9F4F16C08823B6
:1007200011F096E911C0772321F09EE8872F762FEC
:1007300005C0662371F096E8862F70E060E02AF02D
:100740009A95660F771F881FDAF7880F9695879519
:1007500097F9089557FD9058440F551F59F05F3F82
:1007600071F04795880F97FB991F61F09F3F79F0D3
:1007700087950895121613061406551FF2CF469555
:10078000F1DF08C0161617061806991FF1CF8695D7
:100790007105610508940895E894BB2766277727BB
:1007A000CB0197F908950E94E6030C9457040E9428
:1007B000490438F00E94500420F0952311F00C9465
:1007C00040040C94460411240C94CD030E94AA0307
:1007D00070F3959FC1F3950F50E0551F629FF00194
:1007E000729FBB27F00DB11D639FAA27F00DB11DAD
:1007F000AA1F649F6627B00DA11D661F829F222736
:10080000B00DA11D621F739FB00DA11D621F839FBC
:10081000A00D611D221F749F3327A00D611D231F92
:10082000849F600D211D822F762F6A2F11249F57E0
:1008300050409AF0F1F088234AF0EE0FFF1FBB1FE3
:10084000661F771F881F91505040A9F79E3F5105A2
:1008500080F00C9440040C94CD035F3FE4F3983E89
:10086000D4F3869577956795B795F795E7959F5F4C
:10087000C1F7FE2B880F911D9695879597F90895DE
:1008800097F99F6780E870E060E008959FEF80EC43
:10089000089500240A9416161706180609060895E6
:1008A00000240A9412161306140605060895092E4C
:1008B0000394000C11F4882352F0BB0F40F4BF2BBB
:1008C00011F460FF04C06F5F7F4F8F4F9F4F0895FB
:1008D000A29FB001B39FC001A39F700D811D112481
:1008E000911DB29F700D811D1124911D0895F894E2
:0208F000FFCF38
:0608F20054656D703D002D
:00000001FF
